{
  "_format": "hh-sol-artifact-1",
  "contractName": "Lottery",
  "sourceName": "contracts/Lottery.sol",
  "abi": [
    {
      "inputs": [
        {
          "internalType": "address",
          "name": "_vrfCoordinator",
          "type": "address"
        },
        {
          "internalType": "address",
          "name": "_link",
          "type": "address"
        },
        {
          "internalType": "bytes32",
          "name": "_keyHash",
          "type": "bytes32"
        },
        {
          "internalType": "uint256",
          "name": "_fee",
          "type": "uint256"
        },
        {
          "internalType": "uint256",
          "name": "_ticketPrice",
          "type": "uint256"
        }
      ],
      "stateMutability": "nonpayable",
      "type": "constructor"
    },
    {
      "anonymous": false,
      "inputs": [
        {
          "indexed": true,
          "internalType": "address",
          "name": "from",
          "type": "address"
        },
        {
          "indexed": true,
          "internalType": "address",
          "name": "to",
          "type": "address"
        }
      ],
      "name": "OwnershipTransferRequested",
      "type": "event"
    },
    {
      "anonymous": false,
      "inputs": [
        {
          "indexed": true,
          "internalType": "address",
          "name": "from",
          "type": "address"
        },
        {
          "indexed": true,
          "internalType": "address",
          "name": "to",
          "type": "address"
        }
      ],
      "name": "OwnershipTransferred",
      "type": "event"
    },
    {
      "inputs": [],
      "name": "acceptOwnership",
      "outputs": [],
      "stateMutability": "nonpayable",
      "type": "function"
    },
    {
      "inputs": [
        {
          "internalType": "uint256",
          "name": "_noOfTickets",
          "type": "uint256"
        }
      ],
      "name": "buyTicket",
      "outputs": [],
      "stateMutability": "payable",
      "type": "function"
    },
    {
      "inputs": [],
      "name": "checkLinkBalance",
      "outputs": [
        {
          "internalType": "uint256",
          "name": "",
          "type": "uint256"
        }
      ],
      "stateMutability": "view",
      "type": "function"
    },
    {
      "inputs": [
        {
          "internalType": "bytes",
          "name": "",
          "type": "bytes"
        }
      ],
      "name": "checkUpkeep",
      "outputs": [
        {
          "internalType": "bool",
          "name": "upkeepNeeded",
          "type": "bool"
        },
        {
          "internalType": "bytes",
          "name": "performData",
          "type": "bytes"
        }
      ],
      "stateMutability": "view",
      "type": "function"
    },
    {
      "inputs": [],
      "name": "currentState",
      "outputs": [
        {
          "internalType": "enum Lottery.State",
          "name": "",
          "type": "uint8"
        }
      ],
      "stateMutability": "view",
      "type": "function"
    },
    {
      "inputs": [],
      "name": "owner",
      "outputs": [
        {
          "internalType": "address",
          "name": "",
          "type": "address"
        }
      ],
      "stateMutability": "view",
      "type": "function"
    },
    {
      "inputs": [
        {
          "internalType": "bytes",
          "name": "performData",
          "type": "bytes"
        }
      ],
      "name": "performUpkeep",
      "outputs": [],
      "stateMutability": "nonpayable",
      "type": "function"
    },
    {
      "inputs": [
        {
          "internalType": "bytes32",
          "name": "requestId",
          "type": "bytes32"
        },
        {
          "internalType": "uint256",
          "name": "randomness",
          "type": "uint256"
        }
      ],
      "name": "rawFulfillRandomness",
      "outputs": [],
      "stateMutability": "nonpayable",
      "type": "function"
    },
    {
      "inputs": [
        {
          "internalType": "address",
          "name": "to",
          "type": "address"
        }
      ],
      "name": "transferOwnership",
      "outputs": [],
      "stateMutability": "nonpayable",
      "type": "function"
    },
    {
      "inputs": [
        {
          "internalType": "uint256",
          "name": "_lotteryID",
          "type": "uint256"
        }
      ],
      "name": "viewLottery",
      "outputs": [
        {
          "internalType": "uint256",
          "name": "ID",
          "type": "uint256"
        },
        {
          "internalType": "address payable",
          "name": "winner",
          "type": "address"
        },
        {
          "internalType": "uint256",
          "name": "noOfTicketsSold",
          "type": "uint256"
        },
        {
          "internalType": "uint256",
          "name": "winningTicket",
          "type": "uint256"
        },
        {
          "internalType": "uint256",
          "name": "amountInLottery",
          "type": "uint256"
        }
      ],
      "stateMutability": "view",
      "type": "function"
    }
  ],
  "bytecode": "0x6101006040526202a30060c090815250611c2060e0908152507394ba851c8b70ea0bb5eb46217add5724541d1150600860006101000a81548173ffffffffffffffffffffffffffffffffffffffff021916908373ffffffffffffffffffffffffffffffffffffffff1602179055506000600b60006101000a81548160ff02191690836002811115620000ba577f4e487b7100000000000000000000000000000000000000000000000000000000600052602160045260246000fd5b0217905550348015620000cc57600080fd5b50604051620028a7380380620028a78339818101604052810190620000f2919062000427565b3380600087878173ffffffffffffffffffffffffffffffffffffffff1660a08173ffffffffffffffffffffffffffffffffffffffff1660601b815250508073ffffffffffffffffffffffffffffffffffffffff1660808173ffffffffffffffffffffffffffffffffffffffff1660601b815250505050600073ffffffffffffffffffffffffffffffffffffffff168273ffffffffffffffffffffffffffffffffffffffff161415620001db576040517f08c379a0000000000000000000000000000000000000000000000000000000008152600401620001d290620004f7565b60405180910390fd5b81600160006101000a81548173ffffffffffffffffffffffffffffffffffffffff021916908373ffffffffffffffffffffffffffffffffffffffff160217905550600073ffffffffffffffffffffffffffffffffffffffff168173ffffffffffffffffffffffffffffffffffffffff161462000263576200026281620002b060201b60201c565b5b5050508260058190555067016345785d8a0000826200028391906200054c565b600681905550670de0b6b3a7640000816200029f91906200054c565b6007819055505050505050620006c4565b3373ffffffffffffffffffffffffffffffffffffffff168173ffffffffffffffffffffffffffffffffffffffff16141562000322576040517f08c379a0000000000000000000000000000000000000000000000000000000008152600401620003199062000519565b60405180910390fd5b80600260006101000a81548173ffffffffffffffffffffffffffffffffffffffff021916908373ffffffffffffffffffffffffffffffffffffffff1602179055508073ffffffffffffffffffffffffffffffffffffffff16600160009054906101000a900473ffffffffffffffffffffffffffffffffffffffff1673ffffffffffffffffffffffffffffffffffffffff167fed8889f560326eb138920d842192f0eb3dd22b4f139c87a2c57538e05bae127860405160405180910390a350565b600081519050620003f38162000676565b92915050565b6000815190506200040a8162000690565b92915050565b6000815190506200042181620006aa565b92915050565b600080600080600060a086880312156200044057600080fd5b60006200045088828901620003e2565b95505060206200046388828901620003e2565b94505060406200047688828901620003f9565b9350506060620004898882890162000410565b92505060806200049c8882890162000410565b9150509295509295909350565b6000620004b86018836200053b565b9150620004c58262000624565b602082019050919050565b6000620004df6017836200053b565b9150620004ec826200064d565b602082019050919050565b600060208201905081810360008301526200051281620004a9565b9050919050565b600060208201905081810360008301526200053481620004d0565b9050919050565b600082825260208201905092915050565b60006200055982620005eb565b91506200056683620005eb565b9250817fffffffffffffffffffffffffffffffffffffffffffffffffffffffffffffffff0483118215151615620005a257620005a1620005f5565b5b828202905092915050565b6000620005ba82620005cb565b9050919050565b6000819050919050565b600073ffffffffffffffffffffffffffffffffffffffff82169050919050565b6000819050919050565b7f4e487b7100000000000000000000000000000000000000000000000000000000600052601160045260246000fd5b7f43616e6e6f7420736574206f776e657220746f207a65726f0000000000000000600082015250565b7f43616e6e6f74207472616e7366657220746f2073656c66000000000000000000600082015250565b6200068181620005ad565b81146200068d57600080fd5b50565b6200069b81620005c1565b8114620006a757600080fd5b50565b620006b581620005eb565b8114620006c157600080fd5b50565b60805160601c60a05160601c60c05160e0516121876200072060003960006106850152600081816104ee01526106a601526000818161096001526112d10152600081816109fe01528181610ac5015261129501526121876000f3fe6080604052600436106100915760003560e01c806379ba50971161005957806379ba5097146101855780638da5cb5b1461019c57806394985ddd146101c7578063a24bf4ff146101f0578063f2fde38b1461021b57610091565b80630c3f6acf146100965780632423807a146100c15780634585e33b1461010257806367dd74ca1461012b5780636e04ff0d14610147575b600080fd5b3480156100a257600080fd5b506100ab610244565b6040516100b891906119f8565b60405180910390f35b3480156100cd57600080fd5b506100e860048036038101906100e39190611623565b610257565b6040516100f9959493929190611b5f565b60405180910390f35b34801561010e57600080fd5b50610129600480360381019061012491906115b5565b6102c2565b005b61014560048036038101906101409190611623565b61031b565b005b34801561015357600080fd5b5061016e600480360381019061016991906115b5565b6104e8565b60405161017c92919061195a565b60405180910390f35b34801561019157600080fd5b5061019a61079d565b005b3480156101a857600080fd5b506101b1610934565b6040516101be9190611893565b60405180910390f35b3480156101d357600080fd5b506101ee60048036038101906101e99190611579565b61095e565b005b3480156101fc57600080fd5b506102056109fa565b6040516102129190611b44565b60405180910390f35b34801561022757600080fd5b50610242600480360381019061023d9190611527565b610aaa565b005b600b60009054906101000a900460ff1681565b600080600080600080600a6000888152602001908152602001600020905080600001548160010160009054906101000a900473ffffffffffffffffffffffffffffffffffffffff16826002015483600301548460040154955095509550955095505091939590929450565b600082828101906102d391906115fa565b905060018114156102ec576102e6610abe565b50610316565b6002811415610302576102fd610bc0565b610315565b600381141561031457610313610dd3565b5b5b5b505050565b6001600b60009054906101000a900460ff166002811115610365577f4e487b7100000000000000000000000000000000000000000000000000000000600052602160045260246000fd5b81600281111561039e577f4e487b7100000000000000000000000000000000000000000000000000000000600052602160045260246000fd5b146103de576040517f08c379a00000000000000000000000000000000000000000000000000000000081526004016103d590611ae4565b60405180910390fd5b600860009054906101000a900473ffffffffffffffffffffffffffffffffffffffff1673ffffffffffffffffffffffffffffffffffffffff166323b872dd33306007548661042c9190611c66565b6040518463ffffffff1660e01b815260040161044a939291906118e5565b602060405180830381600087803b15801561046457600080fd5b505af1158015610478573d6000803e3d6000fd5b505050506040513d601f19601f8201168201806040525081019061049c9190611550565b6104db576040517f08c379a00000000000000000000000000000000000000000000000000000000081526004016104d290611a84565b60405180910390fd5b6104e482610f2e565b5050565b600060607f00000000000000000000000000000000000000000000000000000000000000006003544261051b9190611cc0565b1180156105a757506001600281111561055d577f4e487b7100000000000000000000000000000000000000000000000000000000600052602160045260246000fd5b600b60009054906101000a900460ff1660028111156105a5577f4e487b7100000000000000000000000000000000000000000000000000000000600052602160045260246000fd5b145b156105d4576001915060016040516020016105c29190611a13565b60405160208183030381529060405290505b60028081111561060d577f4e487b7100000000000000000000000000000000000000000000000000000000600052602160045260246000fd5b600b60009054906101000a900460ff166002811115610655577f4e487b7100000000000000000000000000000000000000000000000000000000600052602160045260246000fd5b1415610683576001915060026040516020016106719190611a2e565b60405160208183030381529060405290505b7f00000000000000000000000000000000000000000000000000000000000000007f00000000000000000000000000000000000000000000000000000000000000006106cf9190611bdf565b600354426106dd9190611cc0565b11801561076957506000600281111561071f577f4e487b7100000000000000000000000000000000000000000000000000000000600052602160045260246000fd5b600b60009054906101000a900460ff166002811115610767577f4e487b7100000000000000000000000000000000000000000000000000000000600052602160045260246000fd5b145b15610796576001915060036040516020016107849190611a49565b60405160208183030381529060405290505b9250929050565b600260009054906101000a900473ffffffffffffffffffffffffffffffffffffffff1673ffffffffffffffffffffffffffffffffffffffff163373ffffffffffffffffffffffffffffffffffffffff161461082d576040517f08c379a000000000000000000000000000000000000000000000000000000000815260040161082490611a64565b60405180910390fd5b6000600160009054906101000a900473ffffffffffffffffffffffffffffffffffffffff16905033600160006101000a81548173ffffffffffffffffffffffffffffffffffffffff021916908373ffffffffffffffffffffffffffffffffffffffff1602179055506000600260006101000a81548173ffffffffffffffffffffffffffffffffffffffff021916908373ffffffffffffffffffffffffffffffffffffffff1602179055503373ffffffffffffffffffffffffffffffffffffffff168173ffffffffffffffffffffffffffffffffffffffff167f8be0079c531659141344cd1fd0a4f28419497f9722a3daafe3b4186f6b6457e060405160405180910390a350565b6000600160009054906101000a900473ffffffffffffffffffffffffffffffffffffffff16905090565b7f000000000000000000000000000000000000000000000000000000000000000073ffffffffffffffffffffffffffffffffffffffff163373ffffffffffffffffffffffffffffffffffffffff16146109ec576040517f08c379a00000000000000000000000000000000000000000000000000000000081526004016109e390611b04565b60405180910390fd5b6109f6828261102f565b5050565b60007f000000000000000000000000000000000000000000000000000000000000000073ffffffffffffffffffffffffffffffffffffffff166370a08231306040518263ffffffff1660e01b8152600401610a559190611893565b60206040518083038186803b158015610a6d57600080fd5b505afa158015610a81573d6000803e3d6000fd5b505050506040513d601f19601f82011682018060405250810190610aa5919061164c565b905090565b610ab26110d0565b610abb81611162565b50565b60006006547f000000000000000000000000000000000000000000000000000000000000000073ffffffffffffffffffffffffffffffffffffffff166370a08231306040518263ffffffff1660e01b8152600401610b1c9190611893565b60206040518083038186803b158015610b3457600080fd5b505afa158015610b48573d6000803e3d6000fd5b505050506040513d601f19601f82011682018060405250810190610b6c919061164c565b1015610bad576040517f08c379a0000000000000000000000000000000000000000000000000000000008152600401610ba490611ac4565b60405180910390fd5b610bbb600554600654611291565b905090565b6000600a6000600454815260200190815260200160002090508060050160008260030154815260200190815260200160002060009054906101000a900473ffffffffffffffffffffffffffffffffffffffff168160010160006101000a81548173ffffffffffffffffffffffffffffffffffffffff021916908373ffffffffffffffffffffffffffffffffffffffff160217905550600060028260040154610c689190611c35565b9050600860009054906101000a900473ffffffffffffffffffffffffffffffffffffffff1673ffffffffffffffffffffffffffffffffffffffff166323b872dd308460010160009054906101000a900473ffffffffffffffffffffffffffffffffffffffff16846040518463ffffffff1660e01b8152600401610ced939291906118ae565b602060405180830381600087803b158015610d0757600080fd5b505af1158015610d1b573d6000803e3d6000fd5b505050506040513d601f19601f82011682018060405250810190610d3f9190611550565b610d7e576040517f08c379a0000000000000000000000000000000000000000000000000000000008152600401610d7590611a84565b60405180910390fd5b6000600b60006101000a81548160ff02191690836002811115610dca577f4e487b7100000000000000000000000000000000000000000000000000000000600052602160045260246000fd5b02179055505050565b6000600b60009054906101000a900460ff166002811115610e1d577f4e487b7100000000000000000000000000000000000000000000000000000000600052602160045260246000fd5b816002811115610e56577f4e487b7100000000000000000000000000000000000000000000000000000000600052602160045260246000fd5b14610e96576040517f08c379a0000000000000000000000000000000000000000000000000000000008152600401610e8d90611ae4565b60405180910390fd5b426003819055506001600b60006101000a81548160ff02191690836002811115610ee9577f4e487b7100000000000000000000000000000000000000000000000000000000600052602160045260246000fd5b02179055506000600a600060045481526020019081526020016000209050600454816000018190555060046000815480929190610f2590611e33565b91905055505050565b6000600a6000600454815260200190815260200160002090506000816002015490506000838360020154610f629190611bdf565b905060008290505b600182610f779190611cc0565b811015610fe5573384600501600083815260200190815260200160002060006101000a81548173ffffffffffffffffffffffffffffffffffffffff021916908373ffffffffffffffffffffffffffffffffffffffff1602179055508080610fdd90611e33565b915050610f6a565b5083836002016000828254610ffa9190611bdf565b925050819055506007548461100f9190611c66565b8360040160008282546110229190611bdf565b9250508190555050505050565b81600960006004548152602001908152602001600020819055506000600a6000600454815260200190815260200160002090508060020154826110729190611e90565b81600301819055506002600b60006101000a81548160ff021916908360028111156110c6577f4e487b7100000000000000000000000000000000000000000000000000000000600052602160045260246000fd5b0217905550505050565b600160009054906101000a900473ffffffffffffffffffffffffffffffffffffffff1673ffffffffffffffffffffffffffffffffffffffff163373ffffffffffffffffffffffffffffffffffffffff1614611160576040517f08c379a000000000000000000000000000000000000000000000000000000000815260040161115790611aa4565b60405180910390fd5b565b3373ffffffffffffffffffffffffffffffffffffffff168173ffffffffffffffffffffffffffffffffffffffff1614156111d1576040517f08c379a00000000000000000000000000000000000000000000000000000000081526004016111c890611b24565b60405180910390fd5b80600260006101000a81548173ffffffffffffffffffffffffffffffffffffffff021916908373ffffffffffffffffffffffffffffffffffffffff1602179055508073ffffffffffffffffffffffffffffffffffffffff16600160009054906101000a900473ffffffffffffffffffffffffffffffffffffffff1673ffffffffffffffffffffffffffffffffffffffff167fed8889f560326eb138920d842192f0eb3dd22b4f139c87a2c57538e05bae127860405160405180910390a350565b60007f000000000000000000000000000000000000000000000000000000000000000073ffffffffffffffffffffffffffffffffffffffff16634000aea07f00000000000000000000000000000000000000000000000000000000000000008486600060405160200161130592919061198a565b6040516020818303038152906040526040518463ffffffff1660e01b81526004016113329392919061191c565b602060405180830381600087803b15801561134c57600080fd5b505af1158015611360573d6000803e3d6000fd5b505050506040513d601f19601f820116820180604052508101906113849190611550565b5060006113a684600030600080898152602001908152602001600020546113f0565b90506001600080868152602001908152602001600020546113c79190611bdf565b600080868152602001908152602001600020819055506113e7848261142c565b91505092915050565b60008484848460405160200161140994939291906119b3565b6040516020818303038152906040528051906020012060001c9050949350505050565b60008282604051602001611441929190611867565b60405160208183030381529060405280519060200120905092915050565b60008135905061146e816120de565b92915050565b600081519050611483816120f5565b92915050565b6000813590506114988161210c565b92915050565b60008083601f8401126114b057600080fd5b8235905067ffffffffffffffff8111156114c957600080fd5b6020830191508360018202830111156114e157600080fd5b9250929050565b6000813590506114f781612123565b92915050565b60008135905061150c8161213a565b92915050565b6000815190506115218161213a565b92915050565b60006020828403121561153957600080fd5b60006115478482850161145f565b91505092915050565b60006020828403121561156257600080fd5b600061157084828501611474565b91505092915050565b6000806040838503121561158c57600080fd5b600061159a85828601611489565b92505060206115ab858286016114fd565b9150509250929050565b600080602083850312156115c857600080fd5b600083013567ffffffffffffffff8111156115e257600080fd5b6115ee8582860161149e565b92509250509250929050565b60006020828403121561160c57600080fd5b600061161a848285016114e8565b91505092915050565b60006020828403121561163557600080fd5b6000611643848285016114fd565b91505092915050565b60006020828403121561165e57600080fd5b600061166c84828501611512565b91505092915050565b61167e81611d82565b82525050565b61168d81611d06565b82525050565b61169c81611cf4565b82525050565b6116ab81611d18565b82525050565b6116ba81611d24565b82525050565b6116d16116cc82611d24565b611e7c565b82525050565b60006116e282611bb2565b6116ec8185611bbd565b93506116fc818560208601611e00565b61170581611f4e565b840191505092915050565b61171981611d94565b82525050565b61172881611da6565b82525050565b61173781611db8565b82525050565b61174681611dca565b82525050565b6000611759601683611bce565b915061176482611f5f565b602082019050919050565b600061177c600f83611bce565b915061178782611f88565b602082019050919050565b600061179f601683611bce565b91506117aa82611fb1565b602082019050919050565b60006117c2602b83611bce565b91506117cd82611fda565b604082019050919050565b60006117e5602183611bce565b91506117f082612029565b604082019050919050565b6000611808601f83611bce565b915061181382612078565b602082019050919050565b600061182b601783611bce565b9150611836826120a1565b602082019050919050565b61184a81611d6b565b82525050565b61186161185c82611d6b565b611e86565b82525050565b600061187382856116c0565b6020820191506118838284611850565b6020820191508190509392505050565b60006020820190506118a86000830184611693565b92915050565b60006060820190506118c36000830186611693565b6118d06020830185611675565b6118dd6040830184611841565b949350505050565b60006060820190506118fa6000830186611693565b6119076020830185611693565b6119146040830184611841565b949350505050565b60006060820190506119316000830186611693565b61193e6020830185611841565b818103604083015261195081846116d7565b9050949350505050565b600060408201905061196f60008301856116a2565b818103602083015261198181846116d7565b90509392505050565b600060408201905061199f60008301856116b1565b6119ac6020830184611841565b9392505050565b60006080820190506119c860008301876116b1565b6119d56020830186611841565b6119e26040830185611693565b6119ef6060830184611841565b95945050505050565b6000602082019050611a0d6000830184611710565b92915050565b6000602082019050611a28600083018461171f565b92915050565b6000602082019050611a43600083018461172e565b92915050565b6000602082019050611a5e600083018461173d565b92915050565b60006020820190508181036000830152611a7d8161174c565b9050919050565b60006020820190508181036000830152611a9d8161176f565b9050919050565b60006020820190508181036000830152611abd81611792565b9050919050565b60006020820190508181036000830152611add816117b5565b9050919050565b60006020820190508181036000830152611afd816117d8565b9050919050565b60006020820190508181036000830152611b1d816117fb565b9050919050565b60006020820190508181036000830152611b3d8161181e565b9050919050565b6000602082019050611b596000830184611841565b92915050565b600060a082019050611b746000830188611841565b611b816020830187611684565b611b8e6040830186611841565b611b9b6060830185611841565b611ba86080830184611841565b9695505050505050565b600081519050919050565b600082825260208201905092915050565b600082825260208201905092915050565b6000611bea82611d6b565b9150611bf583611d6b565b9250827fffffffffffffffffffffffffffffffffffffffffffffffffffffffffffffffff03821115611c2a57611c29611ec1565b5b828201905092915050565b6000611c4082611d6b565b9150611c4b83611d6b565b925082611c5b57611c5a611ef0565b5b828204905092915050565b6000611c7182611d6b565b9150611c7c83611d6b565b9250817fffffffffffffffffffffffffffffffffffffffffffffffffffffffffffffffff0483118215151615611cb557611cb4611ec1565b5b828202905092915050565b6000611ccb82611d6b565b9150611cd683611d6b565b925082821015611ce957611ce8611ec1565b5b828203905092915050565b6000611cff82611d4b565b9050919050565b6000611d1182611d4b565b9050919050565b60008115159050919050565b6000819050919050565b6000819050611d3c826120ca565b919050565b6000819050919050565b600073ffffffffffffffffffffffffffffffffffffffff82169050919050565b6000819050919050565b600060ff82169050919050565b6000611d8d82611ddc565b9050919050565b6000611d9f82611d2e565b9050919050565b6000611db182611d75565b9050919050565b6000611dc382611d75565b9050919050565b6000611dd582611d75565b9050919050565b6000611de782611dee565b9050919050565b6000611df982611d4b565b9050919050565b60005b83811015611e1e578082015181840152602081019050611e03565b83811115611e2d576000848401525b50505050565b6000611e3e82611d6b565b91507fffffffffffffffffffffffffffffffffffffffffffffffffffffffffffffffff821415611e7157611e70611ec1565b5b600182019050919050565b6000819050919050565b6000819050919050565b6000611e9b82611d6b565b9150611ea683611d6b565b925082611eb657611eb5611ef0565b5b828206905092915050565b7f4e487b7100000000000000000000000000000000000000000000000000000000600052601160045260246000fd5b7f4e487b7100000000000000000000000000000000000000000000000000000000600052601260045260246000fd5b7f4e487b7100000000000000000000000000000000000000000000000000000000600052602160045260246000fd5b6000601f19601f8301169050919050565b7f4d7573742062652070726f706f736564206f776e657200000000000000000000600082015250565b7f5472616e73666572206661696c65640000000000000000000000000000000000600082015250565b7f4f6e6c792063616c6c61626c65206279206f776e657200000000000000000000600082015250565b7f4e6f7420656e6f756768204c494e4b202d2066696c6c20636f6e74726163742060008201527f7769746820666175636574000000000000000000000000000000000000000000602082015250565b7f63757272656e7420737461746520646f6573206e6f7420616c6c6f772074686960008201527f7300000000000000000000000000000000000000000000000000000000000000602082015250565b7f4f6e6c7920565246436f6f7264696e61746f722063616e2066756c66696c6c00600082015250565b7f43616e6e6f74207472616e7366657220746f2073656c66000000000000000000600082015250565b600381106120db576120da611f1f565b5b50565b6120e781611cf4565b81146120f257600080fd5b50565b6120fe81611d18565b811461210957600080fd5b50565b61211581611d24565b811461212057600080fd5b50565b61212c81611d41565b811461213757600080fd5b50565b61214381611d6b565b811461214e57600080fd5b5056fea26469706673582212208ca3341414859f1faebc56f7a776fd135f4bee74867669e606e3587f025266e264736f6c63430008040033",
  "linkReferences": {},
  "deployedLinkReferences": {}
}